{
  "_format": "hh-sol-artifact-1",
  "contractName": "Oracle",
  "sourceName": "contracts/Oracle.sol",
  "abi": [
    {
      "anonymous": false,
      "inputs": [
        {
          "indexed": false,
          "internalType": "string",
          "name": "feeType",
          "type": "string"
        },
        {
          "indexed": false,
          "internalType": "uint256",
          "name": "newValue",
          "type": "uint256"
        }
      ],
      "name": "FeeUpdated",
      "type": "event"
    },
    {
      "anonymous": false,
      "inputs": [
        {
          "indexed": false,
          "internalType": "uint256",
          "name": "totalAmount",
          "type": "uint256"
        }
      ],
      "name": "FeesDistributed",
      "type": "event"
    },
    {
      "anonymous": false,
      "inputs": [
        {
          "indexed": true,
          "internalType": "address",
          "name": "by",
          "type": "address"
        },
        {
          "indexed": false,
          "internalType": "uint256",
          "name": "amount",
          "type": "uint256"
        }
      ],
      "name": "FundsWithdrawn",
      "type": "event"
    },
    {
      "anonymous": false,
      "inputs": [
        {
          "indexed": true,
          "internalType": "address",
          "name": "previousOwner",
          "type": "address"
        },
        {
          "indexed": true,
          "internalType": "address",
          "name": "newOwner",
          "type": "address"
        }
      ],
      "name": "OwnershipTransferred",
      "type": "event"
    },
    {
      "anonymous": false,
      "inputs": [
        {
          "indexed": true,
          "internalType": "bytes32",
          "name": "requestId",
          "type": "bytes32"
        },
        {
          "indexed": false,
          "internalType": "string",
          "name": "symbol",
          "type": "string"
        }
      ],
      "name": "PriceRequested",
      "type": "event"
    },
    {
      "anonymous": false,
      "inputs": [
        {
          "indexed": true,
          "internalType": "bytes32",
          "name": "priceId",
          "type": "bytes32"
        },
        {
          "indexed": false,
          "internalType": "uint256",
          "name": "price",
          "type": "uint256"
        }
      ],
      "name": "PriceUpdated",
      "type": "event"
    },
    {
      "anonymous": false,
      "inputs": [
        {
          "indexed": true,
          "internalType": "bytes32",
          "name": "proposalId",
          "type": "bytes32"
        },
        {
          "indexed": false,
          "internalType": "address",
          "name": "proposer",
          "type": "address"
        },
        {
          "indexed": false,
          "internalType": "string",
          "name": "description",
          "type": "string"
        }
      ],
      "name": "ProposalCreated",
      "type": "event"
    },
    {
      "anonymous": false,
      "inputs": [
        {
          "indexed": true,
          "internalType": "bytes32",
          "name": "proposalId",
          "type": "bytes32"
        }
      ],
      "name": "ProposalOpened",
      "type": "event"
    },
    {
      "anonymous": false,
      "inputs": [
        {
          "indexed": true,
          "internalType": "bytes32",
          "name": "requestId",
          "type": "bytes32"
        },
        {
          "indexed": false,
          "internalType": "uint256",
          "name": "randomNumber",
          "type": "uint256"
        }
      ],
      "name": "RandomNumberAvailable",
      "type": "event"
    },
    {
      "anonymous": false,
      "inputs": [
        {
          "indexed": true,
          "internalType": "bytes32",
          "name": "requestId",
          "type": "bytes32"
        }
      ],
      "name": "RandomNumberRequest",
      "type": "event"
    },
    {
      "anonymous": false,
      "inputs": [
        {
          "indexed": true,
          "internalType": "address",
          "name": "member",
          "type": "address"
        },
        {
          "indexed": false,
          "internalType": "uint256",
          "name": "amount",
          "type": "uint256"
        }
      ],
      "name": "StakeDeposited",
      "type": "event"
    },
    {
      "anonymous": false,
      "inputs": [
        {
          "indexed": true,
          "internalType": "address",
          "name": "member",
          "type": "address"
        },
        {
          "indexed": false,
          "internalType": "uint256",
          "name": "amount",
          "type": "uint256"
        }
      ],
      "name": "StakeWithdrawn",
      "type": "event"
    },
    {
      "anonymous": false,
      "inputs": [
        {
          "indexed": true,
          "internalType": "bytes32",
          "name": "proposalId",
          "type": "bytes32"
        },
        {
          "indexed": false,
          "internalType": "address",
          "name": "voter",
          "type": "address"
        },
        {
          "indexed": false,
          "internalType": "bool",
          "name": "vote",
          "type": "bool"
        }
      ],
      "name": "Voted",
      "type": "event"
    },
    {
      "inputs": [],
      "name": "MAX_MEMBERS",
      "outputs": [
        {
          "internalType": "uint256",
          "name": "",
          "type": "uint256"
        }
      ],
      "stateMutability": "view",
      "type": "function"
    },
    {
      "inputs": [],
      "name": "MIN_STAKE",
      "outputs": [
        {
          "internalType": "uint256",
          "name": "",
          "type": "uint256"
        }
      ],
      "stateMutability": "view",
      "type": "function"
    },
    {
      "inputs": [],
      "name": "PRICE_RETRIEVAL_FEE",
      "outputs": [
        {
          "internalType": "uint256",
          "name": "",
          "type": "uint256"
        }
      ],
      "stateMutability": "view",
      "type": "function"
    },
    {
      "inputs": [],
      "name": "PROPOSAL_FEE",
      "outputs": [
        {
          "internalType": "uint256",
          "name": "",
          "type": "uint256"
        }
      ],
      "stateMutability": "view",
      "type": "function"
    },
    {
      "inputs": [],
      "name": "REQUEST_FEE",
      "outputs": [
        {
          "internalType": "uint256",
          "name": "",
          "type": "uint256"
        }
      ],
      "stateMutability": "view",
      "type": "function"
    },
    {
      "inputs": [],
      "name": "addStake",
      "outputs": [],
      "stateMutability": "payable",
      "type": "function"
    },
    {
      "inputs": [
        {
          "internalType": "uint256",
          "name": "",
          "type": "uint256"
        }
      ],
      "name": "daoMembers",
      "outputs": [
        {
          "internalType": "address",
          "name": "",
          "type": "address"
        }
      ],
      "stateMutability": "view",
      "type": "function"
    },
    {
      "inputs": [],
      "name": "distributeFees",
      "outputs": [],
      "stateMutability": "nonpayable",
      "type": "function"
    },
    {
      "inputs": [
        {
          "internalType": "bytes32",
          "name": "priceId",
          "type": "bytes32"
        }
      ],
      "name": "getPrice",
      "outputs": [
        {
          "internalType": "uint256",
          "name": "",
          "type": "uint256"
        }
      ],
      "stateMutability": "payable",
      "type": "function"
    },
    {
      "inputs": [
        {
          "internalType": "string",
          "name": "symbol",
          "type": "string"
        }
      ],
      "name": "getPriceId",
      "outputs": [
        {
          "internalType": "bytes32",
          "name": "",
          "type": "bytes32"
        }
      ],
      "stateMutability": "nonpayable",
      "type": "function"
    },
    {
      "inputs": [
        {
          "internalType": "address",
          "name": "owner",
          "type": "address"
        }
      ],
      "name": "initialize",
      "outputs": [],
      "stateMutability": "nonpayable",
      "type": "function"
    },
    {
      "inputs": [],
      "name": "joinDAO",
      "outputs": [],
      "stateMutability": "payable",
      "type": "function"
    },
    {
      "inputs": [
        {
          "internalType": "uint256",
          "name": "withdrawAmount",
          "type": "uint256"
        }
      ],
      "name": "leaveDAO",
      "outputs": [],
      "stateMutability": "nonpayable",
      "type": "function"
    },
    {
      "inputs": [
        {
          "internalType": "string",
          "name": "description",
          "type": "string"
        }
      ],
      "name": "openProposal",
      "outputs": [],
      "stateMutability": "payable",
      "type": "function"
    },
    {
      "inputs": [],
      "name": "owner",
      "outputs": [
        {
          "internalType": "address",
          "name": "",
          "type": "address"
        }
      ],
      "stateMutability": "view",
      "type": "function"
    },
    {
      "inputs": [
        {
          "internalType": "bytes32",
          "name": "",
          "type": "bytes32"
        }
      ],
      "name": "priceUpdated",
      "outputs": [
        {
          "internalType": "bool",
          "name": "",
          "type": "bool"
        }
      ],
      "stateMutability": "view",
      "type": "function"
    },
    {
      "inputs": [
        {
          "internalType": "bytes32",
          "name": "",
          "type": "bytes32"
        }
      ],
      "name": "prices",
      "outputs": [
        {
          "internalType": "uint256",
          "name": "",
          "type": "uint256"
        }
      ],
      "stateMutability": "view",
      "type": "function"
    },
    {
      "inputs": [
        {
          "internalType": "bytes32",
          "name": "",
          "type": "bytes32"
        }
      ],
      "name": "proposals",
      "outputs": [
        {
          "internalType": "string",
          "name": "description",
          "type": "string"
        },
        {
          "internalType": "address",
          "name": "opener",
          "type": "address"
        },
        {
          "internalType": "uint256",
          "name": "voteCount",
          "type": "uint256"
        }
      ],
      "stateMutability": "view",
      "type": "function"
    },
    {
      "inputs": [
        {
          "internalType": "uint256",
          "name": "newMaxMembers",
          "type": "uint256"
        }
      ],
      "name": "setMaxMembers",
      "outputs": [],
      "stateMutability": "nonpayable",
      "type": "function"
    },
    {
      "inputs": [
        {
          "internalType": "uint256",
          "name": "newMinStake",
          "type": "uint256"
        }
      ],
      "name": "setMinStake",
      "outputs": [],
      "stateMutability": "nonpayable",
      "type": "function"
    },
    {
      "inputs": [
        {
          "internalType": "uint256",
          "name": "newPriceRetrievalFee",
          "type": "uint256"
        }
      ],
      "name": "setPriceRetrievalFee",
      "outputs": [],
      "stateMutability": "nonpayable",
      "type": "function"
    },
    {
      "inputs": [
        {
          "internalType": "uint256",
          "name": "newProposalFee",
          "type": "uint256"
        }
      ],
      "name": "setProposalFee",
      "outputs": [],
      "stateMutability": "nonpayable",
      "type": "function"
    },
    {
      "inputs": [
        {
          "internalType": "uint256",
          "name": "newRequestFee",
          "type": "uint256"
        }
      ],
      "name": "setRequestFee",
      "outputs": [],
      "stateMutability": "nonpayable",
      "type": "function"
    },
    {
      "inputs": [
        {
          "internalType": "address",
          "name": "",
          "type": "address"
        }
      ],
      "name": "stakes",
      "outputs": [
        {
          "internalType": "uint256",
          "name": "",
          "type": "uint256"
        }
      ],
      "stateMutability": "view",
      "type": "function"
    },
    {
      "inputs": [
        {
          "internalType": "string",
          "name": "",
          "type": "string"
        }
      ],
      "name": "symbolToPriceId",
      "outputs": [
        {
          "internalType": "bytes32",
          "name": "",
          "type": "bytes32"
        }
      ],
      "stateMutability": "view",
      "type": "function"
    },
    {
      "inputs": [],
      "name": "totalProposalFeesCollected",
      "outputs": [
        {
          "internalType": "uint256",
          "name": "",
          "type": "uint256"
        }
      ],
      "stateMutability": "view",
      "type": "function"
    },
    {
      "inputs": [],
      "name": "totalRequestFeesCollected",
      "outputs": [
        {
          "internalType": "uint256",
          "name": "",
          "type": "uint256"
        }
      ],
      "stateMutability": "view",
      "type": "function"
    },
    {
      "inputs": [
        {
          "internalType": "address",
          "name": "newOwner",
          "type": "address"
        }
      ],
      "name": "transferOwnership",
      "outputs": [],
      "stateMutability": "nonpayable",
      "type": "function"
    },
    {
      "inputs": [
        {
          "internalType": "string",
          "name": "symbol",
          "type": "string"
        },
        {
          "internalType": "uint256",
          "name": "price",
          "type": "uint256"
        }
      ],
      "name": "updatePrice",
      "outputs": [],
      "stateMutability": "nonpayable",
      "type": "function"
    },
    {
      "inputs": [
        {
          "internalType": "bytes32",
          "name": "proposalId",
          "type": "bytes32"
        },
        {
          "internalType": "bool",
          "name": "vote",
          "type": "bool"
        }
      ],
      "name": "voteOnProposal",
      "outputs": [],
      "stateMutability": "nonpayable",
      "type": "function"
    },
    {
      "inputs": [
        {
          "internalType": "uint256",
          "name": "amount",
          "type": "uint256"
        }
      ],
      "name": "withdraw",
      "outputs": [],
      "stateMutability": "nonpayable",
      "type": "function"
    }
  ],
  "bytecode": "0x608060405234801561001057600080fd5b506134da806100206000396000f3fe6080604052600436106101d85760003560e01c80638da5cb5b11610102578063c892613211610095578063ea0e35b111610064578063ea0e35b114610695578063f2fde38b146106c0578063f63d13d7146106e9578063ffb9c43f146106f3576101d8565b8063c8926132146105eb578063cb1c2b5c14610616578063dbbd32be14610641578063e855f8c91461066c576101d8565b8063b0b121fe116100d1578063b0b121fe14610566578063b28f195314610582578063bb57ad20146105ab578063c4d66de8146105c2576101d8565b80638da5cb5b146104a85780639b32e3e1146104d35780639d51173f146104fe578063a92223c11461053b576101d8565b806332ed5b121161017a5780635a627dbc116101495780635a627dbc146103fb57806360846bc61461040557806382b0a2e7146104425780638c80fd901461047f576101d8565b806332ed5b121461034157806341ee2a82146103805780634a432a46146103a957806351916970146103d2576101d8565b8063233f625c116101b6578063233f625c14610280578063295982e7146102ab5780632e1a7d4d146102e857806331d98b3f14610311576101d8565b806310bf5068146101dd57806313c5e2571461020657806316934fc414610243575b600080fd5b3480156101e957600080fd5b5061020460048036038101906101ff9190612598565b61071c565b005b34801561021257600080fd5b5061022d6004803603810190610228919061249e565b6107d2565b60405161023a9190612d3f565b60405180910390f35b34801561024f57600080fd5b5061026a60048036038101906102659190612475565b6107f2565b6040516102779190613079565b60405180910390f35b34801561028c57600080fd5b5061029561080a565b6040516102a29190613079565b60405180910390f35b3480156102b757600080fd5b506102d260048036038101906102cd9190612503565b610810565b6040516102df9190612d5a565b60405180910390f35b3480156102f457600080fd5b5061030f600480360381019061030a9190612598565b61083e565b005b61032b6004803603810190610326919061249e565b610a4a565b6040516103389190613079565b60405180910390f35b34801561034d57600080fd5b506103686004803603810190610363919061249e565b610b26565b60405161037793929190612d75565b60405180910390f35b34801561038c57600080fd5b506103a760048036038101906103a29190612598565b610bf8565b005b3480156103b557600080fd5b506103d060048036038101906103cb9190612544565b610e04565b005b3480156103de57600080fd5b506103f960048036038101906103f491906124c7565b610f07565b005b6104036110e9565b005b34801561041157600080fd5b5061042c6004803603810190610427919061249e565b6112c5565b6040516104399190613079565b60405180910390f35b34801561044e57600080fd5b5061046960048036038101906104649190612503565b6112dd565b6040516104769190612d5a565b60405180910390f35b34801561048b57600080fd5b506104a660048036038101906104a19190612598565b611364565b005b3480156104b457600080fd5b506104bd61141a565b6040516104ca9190612ccb565b60405180910390f35b3480156104df57600080fd5b506104e8611443565b6040516104f59190613079565b60405180910390f35b34801561050a57600080fd5b5061052560048036038101906105209190612598565b611449565b6040516105329190612ccb565b60405180910390f35b34801561054757600080fd5b50610550611488565b60405161055d9190613079565b60405180910390f35b610580600480360381019061057b9190612503565b61148e565b005b34801561058e57600080fd5b506105a960048036038101906105a49190612598565b6115cc565b005b3480156105b757600080fd5b506105c0611682565b005b3480156105ce57600080fd5b506105e960048036038101906105e49190612475565b61190f565b005b3480156105f757600080fd5b506106006119d8565b60405161060d9190613079565b60405180910390f35b34801561062257600080fd5b5061062b6119de565b6040516106389190613079565b60405180910390f35b34801561064d57600080fd5b506106566119e4565b6040516106639190613079565b60405180910390f35b34801561067857600080fd5b50610693600480360381019061068e9190612598565b6119ea565b005b3480156106a157600080fd5b506106aa611aa0565b6040516106b79190613079565b60405180910390f35b3480156106cc57600080fd5b506106e760048036038101906106e29190612475565b611aa6565b005b6106f1611b97565b005b3480156106ff57600080fd5b5061071a60048036038101906107159190612598565b611e21565b005b3373ffffffffffffffffffffffffffffffffffffffff1661073b61141a565b73ffffffffffffffffffffffffffffffffffffffff1614610791576040517f08c379a000000000000000000000000000000000000000000000000000000000815260040161078890612f7d565b60405180910390fd5b806003819055507fc5dbbc1a39078c6d41f75645288952af1adce3154214371d76e7735665642453816040516107c79190612df3565b60405180910390a150565b600c6020528060005260406000206000915054906101000a900460ff1681565b60066020528060005260406000206000915090505481565b60035481565b600a818051602081018201805184825260208301602085012081835280955050505050506000915090505481565b6000600660003373ffffffffffffffffffffffffffffffffffffffff1673ffffffffffffffffffffffffffffffffffffffff168152602001908152602001600020549050818110156108c5576040517f08c379a00000000000000000000000000000000000000000000000000000000081526004016108bc90612eaf565b60405180910390fd5b60008211610908576040517f08c379a00000000000000000000000000000000000000000000000000000000081526004016108ff90612e6f565b60405180910390fd5b81600660003373ffffffffffffffffffffffffffffffffffffffff1673ffffffffffffffffffffffffffffffffffffffff168152602001908152602001600020600082825461095791906131fd565b925050819055503373ffffffffffffffffffffffffffffffffffffffff166108fc839081150290604051600060405180830381858888f193505050501580156109a4573d6000803e3d6000fd5b503373ffffffffffffffffffffffffffffffffffffffff167feaff4b37086828766ad3268786972c0cd24259d4c87a80f9d3963a3c3d999b0d836040516109eb9190613079565b60405180910390a2600154600660003373ffffffffffffffffffffffffffffffffffffffff1673ffffffffffffffffffffffffffffffffffffffff168152602001908152602001600020541015610a4657610a4533611ed7565b5b5050565b6000600554803414610a91576040517f08c379a0000000000000000000000000000000000000000000000000000000008152600401610a8890612e8f565b60405180910390fd5b600c600084815260200190815260200160002060009054906101000a900460ff16610af1576040517f08c379a0000000000000000000000000000000000000000000000000000000008152600401610ae890612db3565b60405180910390fd5b3460096000828254610b03919061311c565b92505081905550600b600084815260200190815260200160002054915050919050565b600d602052806000526040600020600091509050806000018054610b49906132c5565b80601f0160208091040260200160405190810160405280929190818152602001828054610b75906132c5565b8015610bc25780601f10610b9757610100808354040283529160200191610bc2565b820191906000526020600020905b815481529060010190602001808311610ba557829003601f168201915b5050505050908060010160009054906101000a900473ffffffffffffffffffffffffffffffffffffffff16908060020154905083565b6000600660003373ffffffffffffffffffffffffffffffffffffffff1673ffffffffffffffffffffffffffffffffffffffff16815260200190815260200160002054905060008111610c7f576040517f08c379a0000000000000000000000000000000000000000000000000000000008152600401610c7690613039565b60405180910390fd5b80821115610cc2576040517f08c379a0000000000000000000000000000000000000000000000000000000008152600401610cb990612eef565b60405180910390fd5b81600660003373ffffffffffffffffffffffffffffffffffffffff1673ffffffffffffffffffffffffffffffffffffffff1681526020019081526020016000206000828254610d1191906131fd565b925050819055503373ffffffffffffffffffffffffffffffffffffffff166108fc839081150290604051600060405180830381858888f19350505050158015610d5e573d6000803e3d6000fd5b503373ffffffffffffffffffffffffffffffffffffffff167f8108595eb6bad3acefa9da467d90cc2217686d5c5ac85460f8b7849c840645fc83604051610da59190613079565b60405180910390a2600154600660003373ffffffffffffffffffffffffffffffffffffffff1673ffffffffffffffffffffffffffffffffffffffff168152602001908152602001600020541015610e0057610dff33611ed7565b5b5050565b3373ffffffffffffffffffffffffffffffffffffffff16610e2361141a565b73ffffffffffffffffffffffffffffffffffffffff1614610e79576040517f08c379a0000000000000000000000000000000000000000000000000000000008152600401610e7090612f7d565b60405180910390fd5b6000610e84836112dd565b905081600b6000838152602001908152602001600020819055506001600c600083815260200190815260200160002060006101000a81548160ff021916908315150217905550807f46eec4e0eeeef5830de3472bb39db7e52b1c809286dc87c4b85b20e003cc70c383604051610efa9190613079565b60405180910390a2505050565b6000600660003373ffffffffffffffffffffffffffffffffffffffff1673ffffffffffffffffffffffffffffffffffffffff1681526020019081526020016000205411610f89576040517f08c379a0000000000000000000000000000000000000000000000000000000008152600401610f8090612f9d565b60405180910390fd5b6000600d600084815260200190815260200160002090508060030160003373ffffffffffffffffffffffffffffffffffffffff1673ffffffffffffffffffffffffffffffffffffffff16815260200190815260200160002060009054906101000a900460ff161561102f576040517f08c379a000000000000000000000000000000000000000000000000000000000815260040161102690612ecf565b60405180910390fd5b60018160030160003373ffffffffffffffffffffffffffffffffffffffff1673ffffffffffffffffffffffffffffffffffffffff16815260200190815260200160002060006101000a81548160ff02191690831515021790555081156110aa578060020160008154809291906110a4906132f7565b91905055505b827f16efd9a5766ad43ca179f5ef58b8748c48ddedd2dd2a228460465bfa90d4d06933846040516110dc929190612ce6565b60405180910390a2505050565b6000341161112c576040517f08c379a000000000000000000000000000000000000000000000000000000000815260040161112390613059565b60405180910390fd5b6000600660003373ffffffffffffffffffffffffffffffffffffffff1673ffffffffffffffffffffffffffffffffffffffff16815260200190815260200160002054116111ae576040517f08c379a00000000000000000000000000000000000000000000000000000000081526004016111a590613039565b60405180910390fd5b60006064346111bd9190613172565b9050600081346111cd91906131fd565b905080600660003373ffffffffffffffffffffffffffffffffffffffff1673ffffffffffffffffffffffffffffffffffffffff168152602001908152602001600020600082825461121e919061311c565b9250508190555061122d61141a565b73ffffffffffffffffffffffffffffffffffffffff166108fc839081150290604051600060405180830381858888f19350505050158015611272573d6000803e3d6000fd5b503373ffffffffffffffffffffffffffffffffffffffff167f0a7bb2e28cc4698aac06db79cf9163bfcc20719286cf59fa7d492ceda1b8edc2826040516112b99190613079565b60405180910390a25050565b600b6020528060005260406000206000915090505481565b600080600a836040516112f09190612c8c565b90815260200160405180910390205490506000801b81141561135b57824260405160200161131f929190612ca3565b60405160208183030381529060405280519060200120905080600a846040516113489190612c8c565b9081526020016040518091039020819055505b80915050919050565b3373ffffffffffffffffffffffffffffffffffffffff1661138361141a565b73ffffffffffffffffffffffffffffffffffffffff16146113d9576040517f08c379a00000000000000000000000000000000000000000000000000000000081526004016113d090612f7d565b60405180910390fd5b806001819055507fc5dbbc1a39078c6d41f75645288952af1adce3154214371d76e77356656424538160405161140f9190612fbd565b60405180910390a150565b60008060019054906101000a900473ffffffffffffffffffffffffffffffffffffffff16905090565b60095481565b6007818154811061145957600080fd5b906000526020600020016000915054906101000a900473ffffffffffffffffffffffffffffffffffffffff1681565b60055481565b60035434146114d2576040517f08c379a00000000000000000000000000000000000000000000000000000000081526004016114c990612e8f565b60405180910390fd5b34600860008282546114e4919061311c565b92505081905550600033824260405160200161150293929190612c53565b6040516020818303038152906040528051906020012090506000600d6000838152602001908152602001600020905082816000019080519060200190611549929190612316565b50338160010160006101000a81548173ffffffffffffffffffffffffffffffffffffffff021916908373ffffffffffffffffffffffffffffffffffffffff160217905550817f399d1d4371a507bea52263136afa2916358ccb4fcd6024298ea42659b1a2aec133856040516115bf929190612d0f565b60405180910390a2505050565b3373ffffffffffffffffffffffffffffffffffffffff166115eb61141a565b73ffffffffffffffffffffffffffffffffffffffff1614611641576040517f08c379a000000000000000000000000000000000000000000000000000000000815260040161163890612f7d565b60405180910390fd5b806005819055507fc5dbbc1a39078c6d41f75645288952af1adce3154214371d76e7735665642453816040516116779190612feb565b60405180910390a150565b3373ffffffffffffffffffffffffffffffffffffffff166116a161141a565b73ffffffffffffffffffffffffffffffffffffffff16146116f7576040517f08c379a00000000000000000000000000000000000000000000000000000000081526004016116ee90612f7d565b60405180910390fd5b6000600954600854611709919061311c565b90506000606460078361171c91906131a3565b6117269190613172565b90506000818361173691906131fd565b90506000611742612100565b905060005b60078054905081101561187357600060078281548110611790577f4e487b7100000000000000000000000000000000000000000000000000000000600052603260045260246000fd5b9060005260206000200160009054906101000a900473ffffffffffffffffffffffffffffffffffffffff16905060008385600660008573ffffffffffffffffffffffffffffffffffffffff1673ffffffffffffffffffffffffffffffffffffffff1681526020019081526020016000205461180b91906131a3565b6118159190613172565b90508173ffffffffffffffffffffffffffffffffffffffff166108fc829081150290604051600060405180830381858888f1935050505015801561185d573d6000803e3d6000fd5b505050808061186b906132f7565b915050611747565b5061187c61141a565b73ffffffffffffffffffffffffffffffffffffffff166108fc849081150290604051600060405180830381858888f193505050501580156118c1573d6000803e3d6000fd5b50600060088190555060006009819055507f8959421a1320789a49eeec01a4750caf8a30733c3db14f000d84484df89300f9826040516119019190613079565b60405180910390a150505050565b60008054906101000a900460ff161561195d576040517f08c379a000000000000000000000000000000000000000000000000000000000815260040161195490612f5d565b60405180910390fd5b611966816121dd565b68878678326eac9000006001819055506064600281905550678ac7230489e80000600381905550670de0b6b3a7640000600481905550670de0b6b3a76400006005819055506000600881905550600060098190555060016000806101000a81548160ff02191690831515021790555050565b60085481565b60015481565b60045481565b3373ffffffffffffffffffffffffffffffffffffffff16611a0961141a565b73ffffffffffffffffffffffffffffffffffffffff1614611a5f576040517f08c379a0000000000000000000000000000000000000000000000000000000008152600401611a5690612f7d565b60405180910390fd5b806002819055507fc5dbbc1a39078c6d41f75645288952af1adce3154214371d76e773566564245381604051611a959190612f0f565b60405180910390a150565b60025481565b3373ffffffffffffffffffffffffffffffffffffffff16611ac561141a565b73ffffffffffffffffffffffffffffffffffffffff1614611b1b576040517f08c379a0000000000000000000000000000000000000000000000000000000008152600401611b1290612f7d565b60405180910390fd5b600073ffffffffffffffffffffffffffffffffffffffff168173ffffffffffffffffffffffffffffffffffffffff161415611b8b576040517f08c379a0000000000000000000000000000000000000000000000000000000008152600401611b8290612e4f565b60405180910390fd5b611b9481612251565b50565b600154341015611bdc576040517f08c379a0000000000000000000000000000000000000000000000000000000008152600401611bd390612f3d565b60405180910390fd5b60025460078054905010611c25576040517f08c379a0000000000000000000000000000000000000000000000000000000008152600401611c1c90612dd3565b60405180910390fd5b6000600660003373ffffffffffffffffffffffffffffffffffffffff1673ffffffffffffffffffffffffffffffffffffffff1681526020019081526020016000205414611ca7576040517f08c379a0000000000000000000000000000000000000000000000000000000008152600401611c9e90613019565b60405180910390fd5b6000606434611cb69190613172565b905060008134611cc691906131fd565b905080600660003373ffffffffffffffffffffffffffffffffffffffff1673ffffffffffffffffffffffffffffffffffffffff1681526020019081526020016000206000828254611d17919061311c565b925050819055506007339080600181540180825580915050600190039060005260206000200160009091909190916101000a81548173ffffffffffffffffffffffffffffffffffffffff021916908373ffffffffffffffffffffffffffffffffffffffff160217905550611d8961141a565b73ffffffffffffffffffffffffffffffffffffffff166108fc839081150290604051600060405180830381858888f19350505050158015611dce573d6000803e3d6000fd5b503373ffffffffffffffffffffffffffffffffffffffff167f0a7bb2e28cc4698aac06db79cf9163bfcc20719286cf59fa7d492ceda1b8edc282604051611e159190613079565b60405180910390a25050565b3373ffffffffffffffffffffffffffffffffffffffff16611e4061141a565b73ffffffffffffffffffffffffffffffffffffffff1614611e96576040517f08c379a0000000000000000000000000000000000000000000000000000000008152600401611e8d90612f7d565b60405180910390fd5b806004819055507fc5dbbc1a39078c6d41f75645288952af1adce3154214371d76e773566564245381604051611ecc9190612e21565b60405180910390a150565b60005b6007805490508110156120fc578173ffffffffffffffffffffffffffffffffffffffff1660078281548110611f38577f4e487b7100000000000000000000000000000000000000000000000000000000600052603260045260246000fd5b9060005260206000200160009054906101000a900473ffffffffffffffffffffffffffffffffffffffff1673ffffffffffffffffffffffffffffffffffffffff1614156120e95760076001600780549050611f9391906131fd565b81548110611fca577f4e487b7100000000000000000000000000000000000000000000000000000000600052603260045260246000fd5b9060005260206000200160009054906101000a900473ffffffffffffffffffffffffffffffffffffffff166007828154811061202f577f4e487b7100000000000000000000000000000000000000000000000000000000600052603260045260246000fd5b9060005260206000200160006101000a81548173ffffffffffffffffffffffffffffffffffffffff021916908373ffffffffffffffffffffffffffffffffffffffff16021790555060078054806120af577f4e487b7100000000000000000000000000000000000000000000000000000000600052603160045260246000fd5b6001900381819060005260206000200160006101000a81549073ffffffffffffffffffffffffffffffffffffffff021916905590556120fc565b80806120f4906132f7565b915050611eda565b5050565b600080600090505b6007805490508110156121d9576006600060078381548110612153577f4e487b7100000000000000000000000000000000000000000000000000000000600052603260045260246000fd5b9060005260206000200160009054906101000a900473ffffffffffffffffffffffffffffffffffffffff1673ffffffffffffffffffffffffffffffffffffffff1673ffffffffffffffffffffffffffffffffffffffff16815260200190815260200160002054826121c4919061311c565b915080806121d1906132f7565b915050612108565b5090565b60008054906101000a900460ff161561222b576040517f08c379a000000000000000000000000000000000000000000000000000000000815260040161222290612f5d565b60405180910390fd5b61223481612251565b60016000806101000a81548160ff02191690831515021790555050565b60008060019054906101000a900473ffffffffffffffffffffffffffffffffffffffff16905081600060016101000a81548173ffffffffffffffffffffffffffffffffffffffff021916908373ffffffffffffffffffffffffffffffffffffffff1602179055508173ffffffffffffffffffffffffffffffffffffffff168173ffffffffffffffffffffffffffffffffffffffff167f8be0079c531659141344cd1fd0a4f28419497f9722a3daafe3b4186f6b6457e060405160405180910390a35050565b828054612322906132c5565b90600052602060002090601f016020900481019282612344576000855561238b565b82601f1061235d57805160ff191683800117855561238b565b8280016001018555821561238b579182015b8281111561238a57825182559160200191906001019061236f565b5b509050612398919061239c565b5090565b5b808211156123b557600081600090555060010161239d565b5090565b60006123cc6123c7846130c5565b613094565b9050828152602081018484840111156123e457600080fd5b6123ef848285613283565b509392505050565b60008135905061240681613448565b92915050565b60008135905061241b8161345f565b92915050565b60008135905061243081613476565b92915050565b600082601f83011261244757600080fd5b81356124578482602086016123b9565b91505092915050565b60008135905061246f8161348d565b92915050565b60006020828403121561248757600080fd5b6000612495848285016123f7565b91505092915050565b6000602082840312156124b057600080fd5b60006124be84828501612421565b91505092915050565b600080604083850312156124da57600080fd5b60006124e885828601612421565b92505060206124f98582860161240c565b9150509250929050565b60006020828403121561251557600080fd5b600082013567ffffffffffffffff81111561252f57600080fd5b61253b84828501612436565b91505092915050565b6000806040838503121561255757600080fd5b600083013567ffffffffffffffff81111561257157600080fd5b61257d85828601612436565b925050602061258e85828601612460565b9150509250929050565b6000602082840312156125aa57600080fd5b60006125b884828501612460565b91505092915050565b6125ca81613231565b82525050565b6125e16125dc82613231565b613340565b82525050565b6125f081613243565b82525050565b6125ff8161324f565b82525050565b6000612610826130f5565b61261a8185613100565b935061262a818560208601613292565b6126338161342a565b840191505092915050565b6000612649826130f5565b6126538185613111565b9350612663818560208601613292565b80840191505092915050565b600061267c601583613100565b91507f5072696365206e6f7420757064617465642079657400000000000000000000006000830152602082019050919050565b60006126bc601383613100565b91507f44414f206d656d626572736869702066756c6c000000000000000000000000006000830152602082019050919050565b60006126fc600c83613100565b91507f50524f504f53414c5f46454500000000000000000000000000000000000000006000830152602082019050919050565b600061273c600b83613100565b91507f524551554553545f4645450000000000000000000000000000000000000000006000830152602082019050919050565b600061277c602683613100565b91507f4f776e61626c653a206e6577206f776e657220697320746865207a65726f206160008301527f64647265737300000000000000000000000000000000000000000000000000006020830152604082019050919050565b60006127e2602083613100565b91507f416d6f756e74206d7573742062652067726561746572207468616e207a65726f6000830152602082019050919050565b6000612822601483613100565b91507f496e636f72726563742066656520616d6f756e740000000000000000000000006000830152602082019050919050565b6000612862602783613100565b91507f5769746864726177616c20616d6f756e742065786365656473207374616b656460008301527f20616d6f756e74000000000000000000000000000000000000000000000000006020830152604082019050919050565b60006128c8600d83613100565b91507f416c726561647920766f746564000000000000000000000000000000000000006000830152602082019050919050565b6000612908602b83613100565b91507f43616e6e6f74207769746864726177206d6f7265207468616e2074686520737460008301527f616b656420616d6f756e740000000000000000000000000000000000000000006020830152604082019050919050565b600061296e600b83613100565b91507f4d41585f4d454d424552530000000000000000000000000000000000000000006000830152602082019050919050565b60006129ae601583613100565b91507f4d696e696d756d207374616b65206e6f74206d657400000000000000000000006000830152602082019050919050565b60006129ee602283613100565b91507f496e697469616c697a61626c653a20616c726561647920696e697469616c697a60008301527f65640000000000000000000000000000000000000000000000000000000000006020830152604082019050919050565b6000612a54602083613100565b91507f4f776e61626c653a2063616c6c6572206973206e6f7420746865206f776e65726000830152602082019050919050565b6000612a94601983613100565b91507f4f6e6c792044414f206d656d626572732063616e20766f7465000000000000006000830152602082019050919050565b6000612ad4600983613100565b91507f4d494e5f5354414b4500000000000000000000000000000000000000000000006000830152602082019050919050565b6000612b14601383613100565b91507f50524943455f52455452494556414c5f464545000000000000000000000000006000830152602082019050919050565b6000612b54601483613100565b91507f416c726561647920612044414f206d656d6265720000000000000000000000006000830152602082019050919050565b6000612b94601083613100565b91507f4e6f7420612044414f206d656d626572000000000000000000000000000000006000830152602082019050919050565b6000612bd4602883613100565b91507f5374616b6520696e637265617365206d7573742062652067726561746572207460008301527f68616e207a65726f0000000000000000000000000000000000000000000000006020830152604082019050919050565b612c3681613279565b82525050565b612c4d612c4882613279565b613364565b82525050565b6000612c5f82866125d0565b601482019150612c6f828561263e565b9150612c7b8284612c3c565b602082019150819050949350505050565b6000612c98828461263e565b915081905092915050565b6000612caf828561263e565b9150612cbb8284612c3c565b6020820191508190509392505050565b6000602082019050612ce060008301846125c1565b92915050565b6000604082019050612cfb60008301856125c1565b612d0860208301846125e7565b9392505050565b6000604082019050612d2460008301856125c1565b8181036020830152612d368184612605565b90509392505050565b6000602082019050612d5460008301846125e7565b92915050565b6000602082019050612d6f60008301846125f6565b92915050565b60006060820190508181036000830152612d8f8186612605565b9050612d9e60208301856125c1565b612dab6040830184612c2d565b949350505050565b60006020820190508181036000830152612dcc8161266f565b9050919050565b60006020820190508181036000830152612dec816126af565b9050919050565b60006040820190508181036000830152612e0c816126ef565b9050612e1b6020830184612c2d565b92915050565b60006040820190508181036000830152612e3a8161272f565b9050612e496020830184612c2d565b92915050565b60006020820190508181036000830152612e688161276f565b9050919050565b60006020820190508181036000830152612e88816127d5565b9050919050565b60006020820190508181036000830152612ea881612815565b9050919050565b60006020820190508181036000830152612ec881612855565b9050919050565b60006020820190508181036000830152612ee8816128bb565b9050919050565b60006020820190508181036000830152612f08816128fb565b9050919050565b60006040820190508181036000830152612f2881612961565b9050612f376020830184612c2d565b92915050565b60006020820190508181036000830152612f56816129a1565b9050919050565b60006020820190508181036000830152612f76816129e1565b9050919050565b60006020820190508181036000830152612f9681612a47565b9050919050565b60006020820190508181036000830152612fb681612a87565b9050919050565b60006040820190508181036000830152612fd681612ac7565b9050612fe56020830184612c2d565b92915050565b6000604082019050818103600083015261300481612b07565b90506130136020830184612c2d565b92915050565b6000602082019050818103600083015261303281612b47565b9050919050565b6000602082019050818103600083015261305281612b87565b9050919050565b6000602082019050818103600083015261307281612bc7565b9050919050565b600060208201905061308e6000830184612c2d565b92915050565b6000604051905081810181811067ffffffffffffffff821117156130bb576130ba6133fb565b5b8060405250919050565b600067ffffffffffffffff8211156130e0576130df6133fb565b5b601f19601f8301169050602081019050919050565b600081519050919050565b600082825260208201905092915050565b600081905092915050565b600061312782613279565b915061313283613279565b9250827fffffffffffffffffffffffffffffffffffffffffffffffffffffffffffffffff038211156131675761316661336e565b5b828201905092915050565b600061317d82613279565b915061318883613279565b9250826131985761319761339d565b5b828204905092915050565b60006131ae82613279565b91506131b983613279565b9250817fffffffffffffffffffffffffffffffffffffffffffffffffffffffffffffffff04831182151516156131f2576131f161336e565b5b828202905092915050565b600061320882613279565b915061321383613279565b9250828210156132265761322561336e565b5b828203905092915050565b600061323c82613259565b9050919050565b60008115159050919050565b6000819050919050565b600073ffffffffffffffffffffffffffffffffffffffff82169050919050565b6000819050919050565b82818337600083830152505050565b60005b838110156132b0578082015181840152602081019050613295565b838111156132bf576000848401525b50505050565b600060028204905060018216806132dd57607f821691505b602082108114156132f1576132f06133cc565b5b50919050565b600061330282613279565b91507fffffffffffffffffffffffffffffffffffffffffffffffffffffffffffffffff8214156133355761333461336e565b5b600182019050919050565b600061334b82613352565b9050919050565b600061335d8261343b565b9050919050565b6000819050919050565b7f4e487b7100000000000000000000000000000000000000000000000000000000600052601160045260246000fd5b7f4e487b7100000000000000000000000000000000000000000000000000000000600052601260045260246000fd5b7f4e487b7100000000000000000000000000000000000000000000000000000000600052602260045260246000fd5b7f4e487b7100000000000000000000000000000000000000000000000000000000600052604160045260246000fd5b6000601f19601f8301169050919050565b60008160601b9050919050565b61345181613231565b811461345c57600080fd5b50565b61346881613243565b811461347357600080fd5b50565b61347f8161324f565b811461348a57600080fd5b50565b61349681613279565b81146134a157600080fd5b5056fea26469706673582212202f81da2e7a0c083235d2702d6a4e76b2ccbadc9fb1e3574ad36d0ff713f35b4264736f6c63430008000033",
  "linkReferences": {},
  "deployedLinkReferences": {}
}